:020000041000EA
:10000000002008205D0100101B0100101D010010E0
:100010001101001011010010110100101101001058
:100020001901001019010010190100101F01001022
:10003000110100101901001021010010230100100E
:100040001101001011010010110100101101001028
:100050001101001011010010110100101101001018
:100060001101001011010010110100101101001008
:1000700011010010110100101101001011010010F8
:1000800011010010110100101101001011010010E8
:1000900011010010110100101101001011010010D8
:1000A00011010010110100101101001011010010C8
:1000B00011010010110100101101001011010010B8
:1000C00011010010110100101101001011010010A8
:1000D0001101001011010010110100101101001098
:1000E0001101001011010010110100101101001088
:1000F0001101001011010010110100101101001078
:100100001101001011010010110100101101001067
:10011000EFF30580103800BE00BE00BE00BE00BE7A
:1001200000BE00BEF2EB8871D43F0510F83F051009
:10013000A001001090A31AE7D3DEFFFF42012110B7
:10014000FF010000545B0500793512AB4FF0000051
:100150001E49086006C881F3088810474FF05040D8
:10016000006810B14FF00000F2E70DA40ECC00299A
:1001700002D000F012F8F9E71549164A002000E015
:1001800001C19142FCD11449884714498847144958
:10019000884700BEFDE701C901C29A42FBD3704700
:1001A000F83F051020010020B41D00208C5C0510D4
:1001B00000000820000008208C5C051000100820BA
:1001C00000100820000000007047000008ED00E06B
:1001D000B41D0020B8ED0720457300102D0B001052
:1001E00009730010F8B500BF08B5034B1BB10349F4
:1001F0000348AFF3008008BD0000000020DD0720A9
:10020000487D011003460168EFF3108272B6D1E811
:10021000CFCF0120BCF1000FF9D1C1E84C0FBCF1E8
:10022000000FF4D1BFF35F8F18895989401A06D4A3
:1002300019680023C1E88F3F82F310887047D9897D
:1002400001310844F4E770B504460D46164604F043
:1002500083F8034632462946204605F0C9F970BDA9
:1002600038B504460D4611461A46FFF7ECFF2561E6
:1002700038BD08B505F0CEF908BD2DE9F0410546B9
:100280000F469046002607E03946284605F0C7F994
:100290002B693846984726462846FFF7B3FF18B122
:1002A000731CDCB24645EFD3BDE8F08170B584B075
:1002B00005460C4601AB02AA03A905F053FA18B98A
:1002C00054B9204604B070BD0646019A02990398BD
:1002D00005F016FA3446F4E72946014803F0A8FF72
:1002E000487D01100000000010B5C0B00146982202
:1002F000684617F07BFA1CA1D1E900010AF05CFD09
:10030000EFF3108472B64FF48051194817F0DCFCFB
:10031000002305E000BF00BF00BF00BF00BF0133E6
:10032000B3F57A7FF6DB4FF480726946104817F018
:100330009FFC002305E000BF00BF00BF00BF00BF5F
:100340000133B3F57A7FF6DB84F3108806A1D1E997
:1003500000010AF043FD0028F8D04FF4FA7004F0D1
:100360005FFF40B010BD00BF00C0C678D11E0100C5
:1003700000F03F0070B58AB00446A9B900238DF89B
:10038000043017F0A9FAC2B2202A00D920228DF831
:10039000252021460DF1050017F028FA01A90F4884
:1003A000FFF767FF0AB070BD03238DF8043017F024
:1003B00093FA05468DF825000DF10506202200214F
:1003C000304617F04DF9EAB22146304617F00EFAE2
:1003D00001A90348FFF74DFFE4E700BFDC39072020
:1003E000F0390720074B1860596000225A72BFF39A
:1003F0005F8F01221A72034B5B7A002BFBD0BFF395
:100400005F8F70471CEC072070B58AB006460D461A
:1004100003238DF80430002405E08DF8253001A970
:100420000A48FFF726FFAC420EDA0023AC42F4DAAA
:100430001F2BF2DC16F804C003F128026A4402F80C
:1004400023CC01340133F1E70AB070BDF039072045
:100450002DE9F047B6B007460E469046002406E068
:100460002A78552A13D08A4B00221A800134B442CC
:1004700080F04C82864DB5F800C00CF101039BB2B0
:100480002B803A5D834D05F80C20012BE8D0022B20
:100490000FD09F2B15D8022BE8D99A1E7D498A5C74
:1004A000AA2AE3D15A1E8A5C552ADFD100221146BE
:1004B00017E0784A5278AA2AEBD0754B00221A80AE
:1004C000D4E741467448FFF755FF714B00221A806C
:1004D000CCE701326F4DA85C80F0F0006854013128
:1004E0000132934206DD6B48805CF028F1D0694D03
:1004F0006854F4E7674A92780B2A00F2FF81DFE83C
:1005000012F00C003E00EB009E01AE01BA01C501E5
:10051000FD01FD01FD01D501FA01052B04D0414685
:100520005E48FFF727FFEDE141465D48FFF722FFF8
:1005300010AD5C4A5C49284606F0A2FE41462846BA
:10054000FFF718FF594A5A49284606F099FE4146D6
:100550002846FFF70FFF4FF4E0225649284606F0E1
:100560008FFE41462846FFF705FF182252492846CC
:1005700006F086FE41462846FFF7FCFEC2E14F4BDF
:100580001B78002B31D14E4B4E4A13601B78012B48
:1005900030D0022B47D0032B5ED03E48437990F8F1
:1005A0003A200592003B18BF01230493037903937B
:1005B00090F82930029300F10903019390F8393043
:1005C0000093B0F83730D0F83320D0F82F10D0F89F
:1005D0002B0001F053FE002854D041463A48FFF763
:1005E000C9FE3A4B01221A708CE141463848FFF7A8
:1005F000C1FE87E1274890F83A300493B0F80730FD
:100600000393437902930379019390F8293000937F
:1006100000F10903D0F83320D0F82F10D0F82B00C8
:1006200001F0EEFAD7E71B4890F83A300493B0F89F
:1006300007300393437902930379019390F82930AB
:10064000009300F10903D0F83320D0F82F10D0F830
:100650002B0001F0F7F8BEE70E48437990F83A20F6
:100660000292003B18BF012301930379009390F895
:10067000293000F10902D0F83310D0F82B0001F036
:10068000BBFCA8E741461348FFF774FE3AE100BF00
:1006900076ED07206CDC07207C7D0110907D011039
:1006A000A47D011000E1F505C07D011000C2EB0B37
:1006B000CC7D0110DC7D0110E87D0110AFED07203D
:1006C0006FDC072074DD0720047E011091ED072008
:1006D000F87D0110187E01108E4B8F4A13600022A6
:1006E000ADF8D6201D460DF1400903F1200ECC4691
:1006F00028686968AA68EB68ACE80F001035E14625
:100700007545F4D12B788CF80030844B03F1240923
:100710000DF1610503F1640ECC46BCE80F002860C2
:100720006960AA60EB60E1461035F445F4D1DFF86A
:10073000ECE10EF164050FCDCDF8A100CDF8A510C8
:10074000CDF8A920CDF8AD30BEF875309DB2ADF82A
:10075000B2300EF1770C0DF1B40A0EF1970ED146BE
:10076000DCF80000DCF80410DCF80820DCF80C30C1
:10077000A9E80F000CF1100CCA46F445EFD19CF823
:10078000003089F800300023202B0BDCBDF8D62088
:1007900003F1D801694411F8981C0A44ADF8D62039
:1007A0000133F1E700230AE0BDF8D62003F1D801B8
:1007B000694411F8771C0A44ADF8D62001333F2B69
:1007C000F2DD00230AE0BDF8D62003F1D801694428
:1007D00011F8371C0A44ADF8D62001330F2BF2DD97
:1007E000BDF8D6301D44ADF8D6500023202B0BDCCD
:1007F000BDF8D62003F1D801694411F8241C0A443D
:10080000ADF8D6200133F1E7BDF8D63003F60F730B
:10081000ADF8D63010AD2846FFF766FD9822294680
:100820003F4816F0E3FF02238DF81C3007A93D482E
:10083000FFF71FFD41463C48FFF79CFD62E0B8F121
:10084000000F04D141463948FFF794FD5AE00423D4
:100850008DF8403010A93348FFF70BFD52E04146B8
:100860003348FFF787FD4FF47A7004F0D9FC00217C
:10087000084605F0D4F82F4B01221A702E4B0022A7
:100880001A6041462D48FFF775FD3BE00025294BD6
:100890001D70294B1D6041462948FFF76BFD8DF8FF
:1008A000405010A91F48FFF7E4FC2BE0254B1B78B4
:1008B00013B9254B1B7823B141462448FFF75AFD55
:1008C00020E0164B93F82330013BDBB2172B04D901
:1008D00041461F48FFF74EFD14E041460D4802F027
:1008E000C9FA18B1184B01221A700BE04146194899
:1008F000FFF740FD06E002F0ABFB03E0414616487F
:10090000FFF738FD154B00221A80AFE536B0BDE881
:10091000F08700BF6FDC07203CEC07206CDC072071
:10092000C4EC0720F0390720287E0110387E011022
:100930004C7E01108CED072074290020647E01108C
:10094000707E011091ED0720AFED0720F87D0110BA
:100950007C7E0110887E0110907D011076ED0720CD
:1009600008B50378012B09D0022B0ED063B90C4BCC
:100970001B7873B10B4B01221A7005E00A4B012260
:100980001A700A4B00221A8008BD074B00221A7009
:10099000FAE7002290F881100130FFF759FDF3E7E4
:1009A000AAED07209BED0720B6ED072076ED072086
:1009B00030B589B0044620220021684616F050FE6A
:1009C000206817F069F902460B461049684606F0A0
:1009D00057FC431C00F120026A445F2102F8201CEE
:1009E00022798AB1312220336B4403F8202C00F1A4
:1009F00022030DEB03000A2300F8203C0121684686
:100A0000FFF7B8FC09B030BD3022ECE7987E01104A
:100A100000B583B003460278042A07D8DFE802F065
:100A200003090D111F00134B01221A7003B05DF86A
:100A300004FB114B01221A70F8E70F4B00221A70C9
:100A4000F4E70E4A12781AB10D4B01221A70EDE745
:100A5000012290F881101044FFF7FAFCE6E76A469D
:100A6000D0F80100D3F8051003C26846FFF7A0FFD5
:100A7000DCE700BF95ED072096ED0720ABED0720E2
:100A80009CED072008B510B1054B01221A70082211
:100A900004490548FFF7F1FB0020014B187008BD21
:100AA000ABED072040EC07205CED072008B50822DD
:100AB00003490448FFF7E1FB0020FFF7E3FF08BD0F
:100AC00060EB072008EC0720F8B5104E01273770BF
:100AD0000F4D00242C7008220E490F48FFF7CDFB64
:100AE00034700E4E37700E4B1C7008220D490E48A4
:100AF000FFF7C3FB34702B7823B9094B1B781BB16C
:100B0000384600E00120F8BD0020FCE7AAED0720F0
:100B10009BED072060EB072008EC0720ABED0720DA
:100B20009CED072040EC07205CED072030B58FB02E
:100B30000121B248FFF7BAFB4FF0E02305221A610A
:100B40000CA806F04DFF0022134607E002F1380121
:100B5000694411F8081C0B449BB20132072AF5DDE9
:100B6000C3F309009B1103F47C73184404F058FB91
:100B700006F0FEFC08238222A149A248FFF770FB81
:100B800008238222A049A148FFF76AFB04F034FC45
:100B90009F4D451941F10004002C09DA4FF0FF3553
:100BA0006FF0004404E000214FF0FF3007F006FF33
:100BB000984B5B6A9C42F6D89649896AA94201D251
:100BC0009C42F0D094480AF0CFF804E00122934907
:100BD0008C48FFF752FB924B1B78002BF6D0A022DB
:100BE0000021904816F03CFD00238DF80C3003A93D
:100BF0008D48FFF73EFBADE0642004F011FB0421BB
:100C000002A8FFF7EFFBC6E0029B5B000293039B89
:100C10005B000393854B1B7843B3039802994318F9
:100C2000B3F5E02F19D9C0F5E0212044FFF7ECFB24
:100C30000399029B1944A1F5E0212046FFF7E4FB4C
:100C400001210DF10700FFF7DFFB9DF807100129D7
:100C500007D8774B00221A707CE02044FFF7D4FBC2
:100C6000EEE789002846FFF7CFFBF2E703980299E9
:100C70004318B3F5E02F1AD9C0F5E0212044FFF75F
:100C8000B1FB0399029B1944A1F5E0212046FFF72F
:100C9000A9FB01210DF10700FFF7A4FB9DF8071048
:100CA0000129D6D989002846FFF79CFBD1E72044CB
:100CB000FFF798FBEDE701238DF80C3003A95A48A4
:100CC000FFF7D7FA4FF47A7004F0AAFAFFF7FCFEA8
:100CD00098B9564B1B7813B9564B1B78CBB10023F0
:100CE0008DF80C3003A95048FFF7C3FA00F044FC1C
:100CF0004FF47A7004F094FA2CE000F06FFD0023BA
:100D00004B4A13708DF80C3003A94748FFF7B1FA2E
:100D100020E000F063FD0023454A1370464A13802B
:100D20008DF80C3003A94048FFF7A3FA12E0434BBB
:100D30001B78002B41D1424B1B784BB1414A1368C1
:100D4000591C11602D4A934246D03F4B99424BD0DB
:100D5000FFF7ACFE364B1B78002BE8D001F082FC8D
:100D60000028A8D10DF1060203A902A801F082FC17
:100D700004460DF1070001F0D7FD05462B4B1B780B
:100D8000002B3FF439AF4FF4FA6004F049FA042124
:100D900002A8FFF739FB642004F042FA9DF8063000
:100DA000012B3FF431AF022B7FF434AF029B9B0049
:100DB0000293039B9B0003932CE702F04FF901E0A1
:100DC000FFF774FE214B1B78002BF9D102F064FA77
:100DD0001A4B00221A70BDE701238DF80C3003A9CD
:100DE0001148FFF746FAB3E700248DF80C4003A939
:100DF0000D48FFF73EFA134B1C60A9E7400D0300B6
:100E0000110A00105CED07206109001008EC0720B2
:100E100080841E0000000B403539001040EC072094
:100E200095ED07206CDC0720F039072096ED0720B0
:100E300091ED0720B6ED072076ED0720AFED0720F6
:100E40008CED072074290020801A0600ADED0720E4
:100E500007EE101ADFED137A37EE277AFCEEC77A29
:100E600017EE903A9BB2B3B182B007EE903AF8EE2B
:100E7000677A37EE677ADFED0C7A27EE277AFCEE99
:100E8000C77ACDED017A9DF804201B0443EA0223C2
:100E9000036002B0704700221B0443EA0223036090
:100EA000704700BF0000003B00008043002202604A
:100EB00042608260C2604FF4803202604FF4F832C8
:100EC00042604FF4802282604FF44022826070477B
:100ED00038B505460C46FFF7E9FF611C6B686FF3F8
:100EE000D01343EAC11343EA01336B60284638BD8F
:100EF00038B505460C46FFF7D9FF221D05346B684F
:100F00006FF3D01343EAC21343EA04336B602846FD
:100F100038BD38B505460C46FFF7C8FFA21D0C3496
:100F20006B686FF3D01343EAC21343EA04336B6078
:100F3000284638BD38B505460C46FFF7B7FF621D99
:100F400006346B686FF3D01343EAC21343EA0433E9
:100F50006B60284638BD38B505460C46FFF7A6FF3E
:100F6000E21D0F346B686FF3D01343EAC21343EAF8
:100F700004336B60284638BD38B505460C46FFF78C
:100F800095FFE21C04346B686FF3D01343EAC2137D
:100F900043EA04336B60284638BD38B505460C4635
:100FA000FFF784FFA21C03346B686FF3D01343EA8E
:100FB000C21343EA04336B60284638BD38B5044693
:100FC0000D46FFF773FF05F1080263686FF3D01356
:100FD00043EAC51343EA02336360204638BD38B59F
:100FE00004460D46FFF762FF05F11F0263686FF3C9
:100FF000D01343EAC51141EA02316160E36823F08E
:10100000604343F00053E36021F0C041616020463B
:1010100038BD000038B51C4D2B68012404FA03F1DB
:101020004FF0A042C2F80C149B0102F5405210325E
:10103000D450164BC3F8041400210A2003F062FABE
:1010400013490A2003F0CAFB286809F053F9114B31
:1010500000221A60104B1A68104B1A60104D286855
:10106000104B1968036804FA01F223EA02030360D3
:1010700009F060FA0C4B1A680C49286809F09CFAD0
:101080000B4B1C7038BD00BF1435072000300050DA
:101090001510001000800640503E07205C3E0720DF
:1010A0008C2A07208CE90720882A0720C0BE01105F
:1010B0008FED072008B5102906D8036823F4F03314
:1010C00043EA4131016008BD034B044A40F2291153
:1010D000034806F01DF900BFA07E0110B8BD011045
:1010E000C07E011000B583B0014600230193102398
:1010F000019303F5FC03019301A8FFF7DBFF019BBC
:1011000023F00C0242F00802019223F4F85222F07C
:101110000C0242F0080201920C4A1A4042F0080206
:1011200001920B4A1A4042F00801019142F0090273
:101130000192084A1A4042F00902019206481840FA
:1011400040F00900019003B05DF804FBF3E0FFFEFE
:10115000F3E07FFEF3E07FFCF1E07FFC08B50229BD
:1011600006D8036823F00C0343EA8101016008BD3F
:10117000034B044A40F23711034806F0C9F800BF98
:10118000087F011090BD0110C07E011008B53F29F5
:1011900006D8036823F4FC0343EA4141016008BD1B
:1011A000034B044A40F21B11034806F0B1F800BF9C
:1011B0004C7F011078BD0110C07E011000B586463D
:1011C000012303FA01FC5FFA8CFC0CF1FF3C5FFA8F
:1011D0008CFCFF20002306E043F48052094921F8EB
:1011E00013200133DBB21F2B0AD803EA0C0272452D
:1011F000F2D0044A4AF2A00122F813101846F0E790
:101200005DF804FB681F002010B51C4B1B78012BF8
:1012100005D0022B06D03BB94FF4E02404E04FF494
:10122000603401E04FF4E034052004F025F9144B5C
:101230001B689A0102F1A042126912F0806F09D076
:101240009B0103F1A0439868B0F1FF3F13D0201A2F
:10125000013810BD0B4B1B689A0102F1A0421269C4
:1012600012F0806F04D09B0103F1A0439868EBE774
:101270004FF0FF30EDE74FF0FF30EAE7A0ED072039
:10128000143507201835072010B5002002F0CBFFD9
:10129000012002F0C8FF002405E0084B185D02F0B1
:1012A000C2FF0134E4B2064B1B78A342F5D80021FB
:1012B000044B187802F006FF10BD00BF343E072033
:1012C000A1ED0720A4ED072010B51F4B19688B0175
:1012D0001E4A1A44012313601D4A126894011B48D8
:1012E000035103FA01F04FF0A043C3F864048B01EB
:1012F00003F1A043DB6813F0806FF8D10123934022
:101300004FF0A041C1F86434930103F1A043DB68BE
:1013100013F0806FF8D10F4AC2F804040C4C216816
:1013200001238B40C2F8043400210A2003F0EAF8BC
:1013300009490A2003F052FA034B186808F0DAFF53
:10134000206808F0D7FF10BD14350720103000507A
:1013500018350720003000502101002070B5FFF73C
:1013600093FFFFF751FF1D4B1860FFF7ADFF1C4CBB
:10137000236801251D6300210F2003F0C3F81949DC
:101380000F2003F02BFA2068174B1968036805FA41
:1013900001F223EA0203036009F0CCF8134B1A6848
:1013A0001349206809F008F92068124E3168036873
:1013B00005FA01F223EA02030360002209F042F970
:1013C0003168206809F0B6F80B4B1A680B492068A1
:1013D00009F0F2F80A4B1D7070BD00BF5C3E07209B
:1013E0008C2A07205D1300108CE90720882A07202B
:1013F00008BE011090E907203CEB072030170020C1
:101400008FED072010B5FFF73FFFFFF7FDFE274BDD
:101410001860FFF759FF264C236801221A63002148
:101420000F2003F06FF823490F2003F0D7F923684A
:1014300002221A6303F545534FF40072DA631E4B20
:101440001B78CBB91A4B18681C4B1968036801222A
:101450008A4023EA0203036009F06CF8184B1B78FA
:10146000DBB1184B1A681849114B186809F0A4F839
:10147000164B01221A7010BD0024154B1C60154B31
:101480001968022009F0E0FA4FF0E0231C61124BCA
:1014900019680F2009F0D8FAD4E70A4B1A680F49E7
:1014A000034B186809F088F8E2E700BF5C3E0720AC
:1014B0008C2A072005140010B4ED07208CE90720C2
:1014C000A3ED0720882A07209CBE01108FED07207E
:1014D000000008E038DD07203CDD072078BE011061
:1014E00070B5FFF7D1FEFFF78FFE194B1860FFF7BD
:1014F000EBFE184D286801240463174B1968036834
:1015000004FA01F223EA0203036009F013F8134B13
:101510001A681349286809F04FF8124D2868124ECE
:101520003168036804FA01F223EA0203036000222F
:1015300009F088F83168286808F0FCFF0B4B1A683E
:101540000B49286809F038F80A4B1C7070BD00BFC1
:101550005C3E07208C2A07208CE90720882A072078
:10156000F0BD011040EB072090E907203CEB07207D
:10157000281700208FED072008B5074B1B78022B9A
:1015800000D008BD054B1B681B6B13F0010FF8D092
:10159000FFF7A6FFF5E700BFA2ED07208C2A072082
:1015A0002DE9F04182B006460C46012008F0AAFE63
:1015B000274D2860FFF796FD019020F0300301933E
:1015C00020F0F00343F0400301930DF1040831468D
:1015D0004046FFF7C3FD1F4F3B681F4E316803F1C4
:1015E0002F4303F560031B0DDB0004331944404611
:1015F000FFF7CCFD019B43F0010301932B684FF0F3
:10160000010808FA03F3154AC2F8043414490A2001
:1016100002F09AFF41460A2002F074FF00210A20DE
:1016200003F098F90F4B4FF488521A602B683A6810
:101630003168083102EB81029B0103F1A0431A607B
:10164000094A5A609C60019ADA6002B0BDE8F081F4
:10165000143507208C2A07208CE907200020005031
:101660001510001000800640882A00202DE9F04F58
:1016700083B08346012800F09780022800F099800B
:1016800018B94E4B4FF4E0221A60012008F03AFEE0
:101690004B4C2060012008F035FE4A4D2860206840
:1016A000FFF720FD019020F03003019320F0F000BF
:1016B00040F0400001900DF1040859464046FFF704
:1016C0004DFD29684046FFF7F5FC3F4F3B683F4E14
:1016D000316803F12F4303F560031B0DDB00043376
:1016E00019444046FFF752FD019B43F0010301936B
:1016F00023684FF0010808FA03F3DFF8DCA0CAF80A
:1017000004342868FFF7EEFC009020F030030093CB
:1017100020F0F00040F04000009059466846FFF786
:101720001DFD21686846FFF7C5FC3B68316803F181
:101730002F4303F560031B0DDB0004331944684697
:10174000FFF724FD009B43EA080300932B6808FA87
:1017500003F3CAF804341E490A2002F0F5FE41469C
:101760000A2002F0CFFE00210A2003F0F3F82B68D4
:101770003A683168083102EB8102104909689B011F
:1017800003F1A0431A60134858609960009D1D61E1
:1017900023689B0103F1A0431A6058609960019A85
:1017A000DA6003B0BDE8F08F044B4FF460321A608A
:1017B0006BE7024B4FF4E0321A6066E7F4EA072069
:1017C00014350720183507208C2A07208CE90720BC
:1017D00021010020882A002000200050144B1B7893
:1017E00023BB10B5134B1A689201134B012199507A
:1017F000124B1A689201104B9950EFF3108472B695
:101800000F4B1B78032B05D8DFE803F002070A0D06
:10181000FFF7F8FD84F3108810BDFFF79FFDF9E78F
:10182000FFF75EFEF6E7FFF7F5FBF3E7704700BF53
:101830008FED072014350720103000501835072091
:10184000A2ED07202DE9F04F2DED028B8BB08146E4
:101850000F46144698469DF858A09DF85CB09DF838
:1018600060609DF86850012D05D0022D06D03DB96D
:101870004FF4E02C04E04FF4603C01E04FF4E03C16
:101880003B19634500F27881BF4B994500F27A819C
:101890000AF1FF33DBB2172B00F2AA81BBF10F0F65
:1018A00000F2A881052E00F2A781002E00F0A6818B
:1018B00006EB0B03102B01DD00205EE14FF4E0226C
:1018C0000021B24815F0CCFEB14B1F60B14B1C603B
:1018D0000023B14A1360B14A82F800A0B04A012146
:1018E0001170B04A157007E018F80320AE49895C02
:1018F000AE4AD1540133DBB25345F5D3AA4B13F8AA
:101900000B80AB4B83F80080052003F0F3FE07EE5D
:10191000100AB8EE477A4FEA490907EE909AF8EEB6
:10192000677A87EE278AA34FA34B3B60DFF8B0921C
:10193000A248C9F8000008F069FED9F8003003F1A8
:101940002F4303F56003C3F30753991DC9B2002069
:1019500002F080FB3B6803F12F4303F56003C3F300
:101960000753991DC9B2012002F074FB00270FE054
:10197000904B196801F12F4101F56001C1F3075146
:101980000631C9B2884BD85D02F064FB0137FFB263
:10199000172FEDD9874F0121386808F0D9FD02468D
:1019A000874B1860386802EB4203DB00D0330344F6
:1019B00003F580534FF00041196019600432012390
:1019C000934000F5005213607E4908F0DDFD7E4B28
:1019D000186000270BE0002300930123724AD25DB8
:1019E000774909687348006808F0A5FE0137172F8A
:1019F000F1DD0DF11809DFF8D0A1DAF80010484642
:101A0000FFF7CBFA099B23F4782343F4803309933F
:101A100018EE101A4846FFF71BFA089B23F0FA73DA
:101A200023F4803343F480330893079B23F0F85367
:101A300043F080730793DFF87CB1DBF800000127E7
:101A40000763624B4FF000021A704B46DAF8002031
:101A50005B49096808F0BEFEDFF884A13946DAF870
:101A6000000008F075FD5A4B1860DAF8002000EB12
:101A70004003DB00D033134403F580534FF00041A3
:101A800019601960043007FA00F002F50052106086
:101A900031469DF86400FFF791FB4E49DAF80000EB
:101AA00008F072FD4C4A106000973B4600224849FE
:101AB0000968DAF8000008F03EFE00200090334686
:101AC000424643490968DAF8000008F034FE02AEE5
:101AD000414A11683046FFF782FA96E80F0089E81C
:101AE0000F0023F478234FEAC83808F4782843EA33
:101AF0000803099323F47872099223F0E05222F448
:101B0000787242F080620992344A1A4042F0806250
:101B100009924FF4803306932846FFF7A7FDDBF8C0
:101B20000050274908682B6887403B432B60013CE5
:101B30006A6800F1100101238B401A42F8D1043089
:101B400045F82040224C264D06AB234A12682168F6
:101B5000286808F03FFE296822680B68012000FA17
:101B600002F213430B6000231E4A13701E4A1370C7
:101B70001E4B02221A7000E000200BB0BDEC028B5D
:101B8000BDE8F08F0020F8E700E1F505882A002085
:101B9000543E0720503E07204C3E0720A1ED072071
:101BA0009FED0720A0ED0720D4BD0110343E072093
:101BB000A5ED07208C2A072000003050000020509F
:101BC0008CE90720F0BD0110882A0720B4ED07201A
:101BD00090E90720281700203CEB07201F80FFE337
:101BE00040EB07208FED072090ED0720A2ED0720A6
:101BF0000020C2E70020C0E70020BEE70020BCE7CD
:101C00002DE9F04F2DED028B8DB080460F46144626
:101C100099469DF860A09DF864B09DF868609DF8B5
:101C20007050012D05D0022D06D03DB94FF4E02CA7
:101C300004E04FF4603C01E04FF4E03C3B196345A5
:101C400000F2AF81504B984500F2B1810AF1FF33A9
:101C5000DBB2172B00F2AD81BBF10F0F00F2AB81AD
:101C6000102E00F2AA81002E00F0A98106EB0B03D2
:101C7000102B01DD002095E14FF4E02200214348C4
:101C800015F0EEFC424B1F60424B1C600023424AA1
:101C90001360424A82F800A0414A01211170414A72
:101CA000157007E019F803203F49895C3F4AD15479
:101CB0000133DBB25345F5D33B4B13F80B301A46D7
:101CC00003933B4B1A70052003F014FD07EE100A36
:101CD000B8EE477A4FEA480807EE908AF8EE677A3E
:101CE00087EE278A334F3448386008F08FFC3B6812
:101CF00003F12F4303F56003C3F30753991DC9B2E2
:101D0000002002F0A7F93B6803F12F4303F56003BD
:101D1000C3F30753991DC9B2012002F09BF90027B4
:101D20000FE0244B196801F12F4101F56001C1F367
:101D300007510631C9B21C4BD85D02F08BF901374F
:101D4000FFB2172FEDD91B4F0121386808F000FCB6
:101D500002461A4B1860386802EB4203DB00D033AE
:101D6000034403F580534FF00041196019600432B9
:101D70000123934000F500521360114908F004FC60
:101D8000104B186000272BE000E1F505882A0020A1
:101D9000543E0720503E07204C3E0720A1ED07206F
:101DA0009FED0720A0ED0720D4BD0110343E072091
:101DB000A5ED07208C2A0720000020508CE9072081
:101DC00008BE0110882A07200023009301237D4AC2
:101DD000D25D7D4909687D48006808F0ACFC013798
:101DE000172FF1DD0DF12009DFF808A2DAF8001055
:101DF0004846FFF7C1F80B9B23F4782343F4803364
:101E00000B9318EE101A4846FFF722F80A9B23F0AE
:101E1000FA7323F4803343F480330A93099B23F04D
:101E2000F85343F080730993DFF8A081D8F80030AD
:101E300001271F6303F505534FF480721A63644949
:101E40000F2002F081FB39460F2002F05BFB4FF0C0
:101E5000000B604B83F800B04B46DAF800205A497B
:101E60000968D8F8000008F0B5FC3946D8F8000039
:101E700008F06EFB0346DFF86CA1CAF80000D8F842
:101E8000000003EB4302D200D032024402F580523C
:101E90004FF0004111601160043307FA03F300F5BD
:101EA0000052136046F4C04343F040034A4A538152
:101EB0004A4908F069FB4A4B186000973B465A466E
:101EC000DAF80010D8F8000008F035FCCDF800B0C2
:101ED0003346039ADAF80010D8F8000008F02BFC1B
:101EE0003F4BD3F800B004AE59463046FFF766F8D2
:101EF00096E80F0089E80F0023F47823039AD203B1
:101F000002F4782213430B9323F478720B9223F09C
:101F1000E05323F4787343F080630B934FF48033E2
:101F200008930A9B23F0FA7323F480330A934B46F9
:101F30005A46DAF80010D8F8000008F04BFC2846A2
:101F4000FFF794FBD8F800201F490D681368AF40D5
:101F50003B431360013C516805F1100001238340AD
:101F60001942F8D1043542F825401E4B1C6813680D
:101F70000121A1400B431360516804F110000123BB
:101F800083401942F8D10434BDF86C3042F8243053
:101F90000023154A1370154A13700120144B187052
:101FA00000E000200DB0BDEC028BBDE8F08F0020FA
:101FB000F8E70020F6E70020F4E70020F2E7002031
:101FC000F0E700BFD4BD01108CE907208C2A072060
:101FD0005D130010B4ED07203817002030170020E3
:101FE0003CEB072090E907208FED072090ED0720BC
:101FF000A2ED0720882A07202DE9F0472DED028B5E
:1020000086B081460D4617461C469DF840A09DF8B7
:1020100044809DF84860012E05D0022E06D03EB9BE
:102020004FF4E02C04E04FF4603C01E04FF4E03C5E
:10203000AC45C0F0F1807D4B994500F2F380631E02
:10204000DBB2172B00F2F080BAF1180F01D9002093
:10205000E3E04FF4E0220021754815F001FB002178
:10206000744B1960744B1D60744B1960744B1C7079
:10207000744B83F80080744B1970744B1E7006E02B
:102080007B5C734AD25C734B5A540131C9B2A14292
:10209000F6D36F4B13F80A706F4B1F70052003F0D7
:1020A00029FB07EE100AB8EE477A07EE909AF8EE91
:1020B000677A87EE278A694C6948206008F0A6FA9B
:1020C0000121206808F044FA0246664B1860206837
:1020D00002EB4203DB00D033034403F580534FF09F
:1020E00000411960196004320123934000F5005249
:1020F00013605D4908F048FA5C4B186000240BE05F
:10210000002300930123524A125D5649096853483F
:10211000006808F010FB0134172CF1DD00240FE0FB
:102120004E4B1B6803F12F4303F56003C3F30753C2
:10213000991DC9B2464B185D01F08CFF0134E4B221
:10214000172CEDD9454C0023009301233A4645490D
:102150000968206808F0EFFA236803F12F4303F5BC
:102160006003C3F30753991DC9B2384601F072FFEB
:10217000B8F1000F4BD00DF10808DFF8F090D9F856
:1021800000104046FEF7A4FE059B23F4782343F499
:102190008033059318EE101A4046FEF759FE049B53
:1021A00023F0FA7323F4803343F4A0230493039BB6
:1021B00023F0F8533F0607F0F8573B430393DFF84B
:1021C0009CA0DAF80000274F39680368012404FA5C
:1021D00001F223EA020303604346D9F8002008F025
:1021E000F9FA29463046FFF7DBF9DAF800103A68C9
:1021F0000B6804FA02F213430B6000231C4A1370AD
:102200001C4A13701C4B03221A70204605E0012162
:10221000384601F057FFAEE7002006B0BDEC028B58
:10222000BDE8F0870020F8E70020F6E700C2EB0BDE
:10223000882A0020543E0720503E07204C3E0720AD
:10224000A1ED0720A3ED07209FED0720A0ED0720BB
:10225000D4BD0110343E0720A4ED07208C2A0720AE
:10226000000020508CE90720C0BE0110882A0720FA
:102270008FED072090ED0720A2ED07202DE9F04F0C
:102280002DED028B89B003900E4614461D469DF835
:1022900050909DF858809DF85CA09DF860B09DF826
:1022A0006470012F20D0022F21D00FB94FF4E02C01
:1022B00005FB04433344634500F2B981AE4B039AF6
:1022C0009A4200F2BA81B9F1000F02D0FD2D00F25E
:1022D000B68108F1FF33DBB2172B00F2B281BAF1FD
:1022E000180F07D90020A3E14FF4603CE0E74FF45A
:1022F000E03CDDE74FF4E0220021A04815F0B0F902
:102300009F4B1E609F4B1C609F4B1D609F4B83F833
:1023100000809F4B83F800B000239E4A13709E4AB2
:10232000177007E0159AD25C9C49895C9C4AD1548D
:102330000133DBB24345F5D3984B13F80A60994B50
:102340001E70052003F0D6F907EE100AB8EE477AA2
:10235000039B5B0007EE903AF8EE677A87EE278AD8
:10236000DFF860829048C8F8000008F04FF90121BA
:10237000D8F8000008F0ECF802468C4B1860D8F84A
:10238000000002EB4203DB00D033034403F580532B
:102390004FF000411960196004320123934000F5A9
:1023A00000521360BBF1000F10D0B9F1000F07D03D
:1023B0007F4908F0E9F87F4B18604FF0000822E0F1
:1023C0007D4908F0E1F87B4B1860F6E7B9F1000FA2
:1023D00005D07A4908F0D8F8764B1860EDE77849CF
:1023E00008F0D2F8734B1860E7E70023009301234D
:1023F0006A4A12F808206D4909687248006808F0B6
:102400009AF908F10108B8F1170FEEDD4FF0000856
:1024100012E06C4B196801F12F4101F56001C1F325
:1024200007510631C9B25D4B13F8080001F012FEE6
:1024300008F101085FFA88F8B8F1170FE9D9DFF859
:102440008481002300930123324658490968D8F853
:10245000000008F070F9D8F8003003F12F4303F5BD
:102460006003C3F30753991DC9B2304601F0F2FD72
:10247000B9F1000F70D0BBF1000F67D04D4B196858
:1024800004A8FEF768FD079B23F4782343F4803308
:10249000079318EE101A04A8FEF7DAFC069B23F047
:1024A000FA7323F4803343F4A0230693059B23F0AF
:1024B000F853360606F0F85633430593414B1B6834
:1024C00001261E6303F505534FF480721A633E49DB
:1024D0000F2002F039F831460F2002F013F815B141
:1024E000B9F1000F7AD1394B00221A702F4EDFF864
:1024F000D48004AB2F4A12683168D8F8000008F085
:1025000069F93846FFF7B2F8D8F800203668136842
:102510000121B1400B431360516806F11000012303
:1025200083401942F8D1311D42F82150013C5168D5
:102530001942FCD1043642F826400023244A137085
:10254000244A1370244A1370012071E0194B196852
:1025500004A8FEF7EFFC96E7BBF1000F05D0154B82
:10256000196804A8FEF7D5FC8DE7124B196804A87A
:10257000FEF7BEFC87E700BF00E1F505882A0020D2
:10258000543E0720503E07204C3E0720A1ED072077
:10259000A3ED07209FED0720A0ED0720D4BD01107B
:1025A000343E0720A4ED0720000020508CE90720CE
:1025B00024BE0110882A072078BE01104CBE0110ED
:1025C0009CBE01108C2A072005140010B4ED0720D2
:1025D0008FED072090ED0720A2ED07201A4B1B6816
:1025E00002261E6303F505534FF40072DA630021DF
:1025F000102002F0AFF9154B4FF480321A601449E5
:10260000304608F0FFF9134B1860134B00221A7084
:1026100012490F2008F0F6F9114B18604FF0E02333
:102620006FF07F425A619A6107221A615BE70020CE
:1026300009B0BDEC028BBDE8F08F0020F8E7002068
:10264000F6E70020F4E700BF8C2A0720000008E02E
:102650007D01002038DD0720B0ED07206D0100204E
:102660003CDD0720024B187880F00100704700BF66
:102670008FED07202DE9F04F83B08E469D4B1B68F0
:102680009D490D6803FB05559C4B1B681D449C4BE5
:102690001B7833BB9B4B93F80080B8F1010F2CD013
:1026A000B8F1020F2CD0B8F1000F01D14FF4E027A0
:1026B000691E954B1B68994225D9791B0B44013340
:1026C00092490B60914B1C68B8F1010F6CD0B8F1C6
:1026D000020F1DD0B8F1000F00F0BA80884B012125
:1026E0001970884B1B7813700560884B1B68CEF8F7
:1026F0000030874803B0BDE8F08F4FF46037D7E76C
:102700004FF4E037D4E75B1B013380490B60D9E716
:10271000804B93F800B0BBF1030F08D000214FF0BD
:102720000008CDF800B0BA46A44601902DE07A4BDF
:102730001B782BB9794B1B78023B01219940EEE7BE
:102740000021ECE7744B1B784BBB4C4027E0744BEB
:1027500013F800B0ABF1020B5FFA8BFB012303FA15
:102760000BF3234023FA0BF383401E4301306D4BE0
:102770001B788342EBDC0CF1010C47F80960E24561
:1027800001D84FF0000C08F10108A8450AD24FEA21
:102790008C095F4F57F82C40009B032BD2D00020B0
:1027A0000646E4E7019899E75A4B93F800B0BBF16D
:1027B000030F07D000264FF00008CDF800B00197B6
:1027C000314637E0544B1B7833B9544B19780239F2
:1027D00001238B409EB2EEE70026ECE74E4B1B78C0
:1027E0009BBB81EA0C0C30E0DFF834A11AF806B08C
:1027F000ABF1020B5FFA8BFB4FF0010A0AFA0BFAFE
:102800000CEA0A0A4AFA0BFA0AFA06FA43EA0A0A30
:102810001FFA8AF30136DFF80CA19AF800A0B2453E
:10282000E2DC013427F80930019BA34200D80024E0
:1028300008F10108A845BFF451AF4FEA4409344FED
:1028400037F814C0009B032BC8D000263346E2E7BC
:10285000304B93F800B0BBF1030F08D0C4464FF0E3
:102860000009CDF80080CDF804B0664632E02A4B6E
:102870001B783BB9294B1978023901238B405FFA49
:1028800083FCECE7C446EAE7234B1B786BBB86EA84
:1028900008082AE0224911F80CB0ABF1020B5FFAEC
:1028A0008BFB012101FA0BF108EA010141FA0BF15E
:1028B00001FA0CF11943CBB20CF1010C194909785A
:1028C0006145E7DC01348AF80030A74200D80024D3
:1028D00009F10109A945BFF401AF0D4B04EB030A4F
:1028E00013F80480019B032BCED0009B4FF0000C0B
:1028F000E4E700BF4C3E0720503E0720543E07202F
:1029000090ED0720A0ED07205C3E0720583E0720F1
:10291000882A0020A2ED0720A3ED0720A4ED0720C0
:10292000343E0720A1ED0720024B1B7803700248BC
:10293000704700BFB4ED0720703E072007EE101A65
:10294000DFED137A37EE277AFCEEC77A17EE903A6E
:102950009BB2B3B182B007EE903AF8EE677A37EEE9
:10296000677ADFED0C7A27EE277AFCEEC77ACDED99
:10297000017A9DF804201B0443EA0223036002B09D
:10298000704700221B0443EA02230360704700BF24
:102990000000003B00008043002202604260826031
:1029A000C2604FF4803202604FF4F83242604FF45C
:1029B000802282604FF440228260704738B505461D
:1029C0000C46FFF7E9FF611C6B686FF3D01343EA15
:1029D000C11343EA01336B60284638BD70B586B039
:1029E0000546474C4748206007F010FE012120684B
:1029F00007F0AEFD0246444B1860206802EB42032C
:102A0000DB00D033034403F580534FF000411960DD
:102A1000196004320123934000F5005213603B49D2
:102A200007F0B2FD3A4B186000240BE0002300933E
:102A30000123384A125D344909683148006807F0BB
:102A40007AFE0134172CF1DD00240FE02C4B1968BD
:102A500001F12F4101F56001C1F307510631C9B2FF
:102A60002C4B185D01F0F6FA0134E4B2172CEDD9C5
:102A7000052002F03FFEB0FBF5F6B6F5803F03D22D
:102A8000A84203D2012601E04FF6FF7602AC204DAA
:102A900029682046FFF792FF059B23F4782343F42F
:102AA0008033059307EE906AF8EE677A17EE901A76
:102AB0002046FFF743FF049B23F0FA7323F480338F
:102AC00043F4A0230493134B1A78039B23F0F85389
:102AD000120602F0F85213430393094B18680A4B8D
:102AE00019680368012606FA01F223EA020303606B
:102AF0002A682346324407F06DFE304606B070BDAA
:102B0000C4EA072000002050CCEA072028BF0110AB
:102B1000C8EA0720D4BD011008B5022906D8036809
:102B200023F00C0343EA8101016008BD034B044A12
:102B300040F23711034804F0EBFB00BF087F01109F
:102B400000BF0110C07E011008B53F2906D80368F8
:102B500023F4FC0343EA4141016008BD034B044AEE
:102B600040F21B11034804F0D3FB00BF4C7F01105F
:102B7000E8BE0110C07E011008B5102906D8036810
:102B800023F4F03343EA4131016008BD034B044AAA
:102B900040F22911034804F0BBFB00BFA07E0110E6
:102BA000CCBE0110C07E011000B583B001460023E9
:102BB00001931023019303F5FC03019301A8FFF790
:102BC000DBFF019B23F00C0242F00802019223F488
:102BD000F85222F00C0242F0080201920C4A1A400C
:102BE00042F0080201920B4A1A4042F0080101919A
:102BF00042F009020192084A1A4042F00902019289
:102C00000648184040F00900019003B05DF804FB4D
:102C1000F3E0FFFEF3E07FFEF3E07FFCF1E07FFCFA
:102C20002DE9F04F83B08346012007F06BFB454C44
:102C30002060012007F066FB434D28602068FFF705
:102C4000B3FF019020F03003019320F0F00040F03A
:102C5000400001900DF1040859464046FFF75CFF23
:102C60003A4F3B683A4E316803F12F4303F5600356
:102C70001B0DDB00043319444046FFF765FF29684C
:102C80004046FFF779FF019B43F00103019323685E
:102C90004FF0010808FA03F3DFF8C4A0CAF81434AF
:102CA0002868FFF781FF009020F03003009320F0A8
:102CB000F00040F04000009059466846FFF72CFFB6
:102CC0003B68316803F12F4303F560031B0DDB0004
:102CD000043319446846FFF737FF21686846FFF759
:102CE0004BFF009B43EA080300932B6808FA03F3A9
:102CF000CAF81434FF2217490B2001F055FC414655
:102D00000B2001F0FFFB2B6839683268083201EBB9
:102D10008201114A10689B0103F1A04319600F4A18
:102D20005A609860009D1D6123689B0103F1A043D8
:102D30001960A2F580525A609860019ADA6003B077
:102D4000BDE8F08FC0E90720C4E90720C4EA0720E6
:102D5000CCEA0720B9010020BCE90720883A00200E
:102D60000020005030B583B005460C468DF80410A5
:102D7000C1F307238DF805300A4B1B784BB10221B4
:102D800001A8FDF741FBA1B22846FDF73DFB03B0CA
:102D900030BD022101A800F097FDA1B2284600F045
:102DA00093FDF4E7ACED072030B583B00446002373
:102DB00001E00133DBB2A3420AD2204931F81310FB
:102DC00061BB1F4931F813100029F2D0012300E044
:102DD0000023B3B1FF238DF804308DF805308DF852
:102DE00006406500174B1B78D3B1032101A8FDF7FE
:102DF0000BFB29461148FDF707FB29461048FDF754
:102E000003FB6400224600210C4814F029FC2246F2
:102E100000210B4814F024FC03B030BD0123D8E797
:102E2000032101A800F050FD2946044800F04CFDA4
:102E30002946034800F048FDE3E700BFAC2A07201D
:102E4000FCEA0720ACED072000B583B00023ADF805
:102E50000430074B1B7833B1022101A8FDF7D4FAE7
:102E600003B05DF804FB022101A800F02DFDF7E797
:102E7000ACED07202DE9F04182B090F820506B1E98
:102E8000DBB2172B00F2B48004460E46436A002BD7
:102E900000F0B38000239C4602E05A48C25401333C
:102EA0009D4207DDE25C172A00F2A9806245F4D951
:102EB0009446F2E7BCF1070F12D8534B08221A6070
:102EC0000027524B1D60052002F014FC626AB0FB23
:102ED000F2F3B3F5803F10D2824210D901230EE005
:102EE000BCF10F0F04D8484B10221A600127E8E705
:102EF000454B18221A600227E3E74FF6FF73B0FB39
:102F0000F3F0434B1860638C1F2B05D9B3F5806F2A
:102F100003D94FF4806303E0202333F01F032BD049
:102F20003C4A136000253C4B1D603C4B1D603C4BF4
:102F30001D603C4B1D703C4B01221A703B4B1E70B8
:102F40004FF0400842462946394814F089FB424672
:102F50002946384814F084FB374B20221A60F822A7
:102F60002946364814F07CFB606AFFF737FD0446BB
:102F700020B92D4B1D703CE02023D1E73846FFF7E8
:102F80004FFE31462E48FDF7F5F9224B1B688DF8B0
:102F900000301B0A8DF801301C4B1B788DF8023075
:102FA00000238DF803301A4B1B688DF804301A0A81
:102FB0008DF805201A0C8DF806201B0E8DF80730B1
:102FC0008EB108216846FDF71FFABFF35F8F01231A
:102FD0001C4A13701C4A11681C4A10680A68834016
:102FE00013430B6005E008216846FDF7FBF9ECE7A9
:102FF0000024204602B0BDE8F0810024F9E7002457
:10300000F7E700BFA4E90720A0E90720C8E90720E7
:103010009CE90720BCE907201C350720A82A0720C7
:10302000F8EA072093ED0720AEED0720ACED07206E
:10303000AC2A0720FCEA072018DD0720CCE907208E
:10304000607F0110ADED0720C4EA0720CCEA07201D
:10305000014B00221A707047AEED07202DE9F043B6
:1030600083B000F04DFF00253CE0FDF71FFD39E087
:1030700069082F4FA7FB01310909C1EB4111A5EBED
:103080004101DFF8D880DFF8D8904FF4805209EB87
:103090000131404614F0AAFB264E33685C08A7FBBA
:1030A00004742409C4EB4414A3EB440440F608431D
:1030B00004FB03F303F578334B4401931E4B1B6869
:1030C00000931E4B1B681E4A12681E49404600F0C2
:1030D00023FF1D4B43F82400BFF35F8F3368013398
:1030E00033600135194B1B78C3B1194B1B68AB42D8
:1030F000BBD9174B1B685B1B3B2BB9D9013B0D4A56
:10310000126802F01F02134931F8120010FA83F31B
:1031100021F812300E4B1D68013DA9E700F0F6FEC4
:10312000BFF35F8F0C4B01221A7003B0BDE8F08330
:1031300043082184A82A0720BCE90720A0E907202A
:10314000C8E90720A4E90720CCE90720AEED072055
:103150001C350720AC2A072093ED072078F40620C1
:10316000882A0020F8B5002429E0BFF35F8F3E4D88
:103170002A6851083D4BA3FB01310909C1EB4111FC
:103180004B00D11A3A4B53F8217040F6084303FB29
:1031900001F101F57831374E3A46374B1944304644
:1031A00014F024FB39463046FFF7DCFD2B68013371
:1031B0002B6001342A68314B1B689A422DD2032CB4
:1031C00033D8294B1A682E4B1B689A422DD22C4BB0
:1031D0001B68254A12689B1A3C2BC6D9013B224A20
:1031E000116801F01F01274D35F8110010FA83F026
:1031F00025F8110011680B44136012681F4B1B68FF
:103200009A42DCD32020FFF7CFFD174B1B685B09E8
:1032100001335B01194A1360D1E72020FFF7C4FD99
:10322000164A136820331360C9E7174B1B78B3B1F4
:103230000D4B1A68124B1B689A4210D3BFF35F8F75
:10324000094B186810F01F000AD1FFF7FDFD0F4B66
:1032500019780F48FDF78EF80E4B00221A70F8BD52
:10326000FFF7A2FDF1E700BFF8EA07204308218439
:10327000CCE9072078040720882A002018DD0720E1
:10328000A82A0720FCEA072093ED0720ACED0720D1
:10329000707F0110ADED072010B5284B1868284B42
:1032A00019680268012303FA01F122EA01020260AF
:1032B000244A11688801244A1350244A1268940150
:1032C0002148035103FA01F04FF0A043C3F864040E
:1032D0008B0103F1A043DB6813F0806FF8D1012369
:1032E00093404FF0A041C1F86434930103F1A0432F
:1032F000DB6813F0806FF8D1154AC2F81404134C40
:10330000216801238B40C2F8143412490B2001F0CC
:1033100065FA0C4B186806F0EDFF206806F0EAFF2E
:10332000064C074B1968206807F004F90A4B1A6825
:103330000A49206807F040F910BD00BFC4EA072021
:10334000CCEA0720C0E9072010300050C4E907206C
:1033500000300050B9010020C8EA072028BF011042
:1033600010B504461F2100F075FE002211462046CC
:1033700000F08CFE0021204600F036FF10BD00005A
:103380000ABB30B5A3B008461446F9B1144B1B680C
:10339000FBB9144B1B78042B1ED1114D2960124927
:1033A00009F02AFC1149286809F034FC0D4B05226C
:1033B0001A7001238DF8043001A90D48FCF759FF5C
:1033C000204623B030BD6FF0050070476FF0050058
:1033D000F7E76FF00500F4E76FF00500F1E700BFD5
:1033E000A42A072094ED072011360010F1350010B3
:1033F0005CED0720037823BB70B5054690F82140AB
:1034000000260CE098B900214FF0FF3005F0D6FA05
:10341000002005F0CFFD002005F08CFD80B17CB1CF
:10342000002005F045FE8442ECD22046EAE7691C04
:1034300002463144002005F019FE0644241AE2E752
:1034400070BD704710B5C2B0002005F073FD044692
:10345000A8B11B4B1B783BB1194B1C70002005F029
:1034600083FDD8B942B010BD694601238DF8003004
:1034700000238DF881301348FCF7FBFEECE7104B7E
:103480001B78002BE8D0694602238DF8003000231A
:103490008DF881300B48FCF7ECFEDDE700208DF85D
:1034A000840080220DF1850105F06AFDC0B28DF81F
:1034B00005010028D6D021A90248FCF7DAFED1E7A1
:1034C000B7ED072008EC0720F0B5A3B004278DF86E
:1034D000047008238DF8853007F056FAEFF3108456
:1034E00072B6224B9E6FA3F58033D3F8EC501D20AB
:1034F000FFF736FF1E4B1B6883F4405303F4704301
:103500001C4A1360642001F08BFE1B4B1F60184B9C
:103510001B6813F4807FFAD0154B5B689BB207EEF3
:10352000903AF8EEE77A9FED157A67EE877AB0EE7B
:10353000087A67EE877A17EE903ACDF805301D20AD
:1035400000F066FE094B9E67A3F58033C3F8EC508C
:1035500084F31088022010F0FDF88DF8090001A90D
:103560000748FCF786FE23B0F0BD00BF0080034093
:1035700000000A4000100A4000200A403333533A4A
:103580005CED072008B598220249034814F02EF993
:1035900008BD00BF00F03F10C4EC072008B5044B85
:1035A000186820B109F038FE014B00221A6008BDEE
:1035B00084E907200C4B186888B110B5002109F088
:1035C0001BFB094C0021206809F024FB206809F04E
:1035D00023FE00232360054B04221A7010BD034B09
:1035E00004221A70704700BFA42A072094ED072018
:1035F00000B5A3B0FFF7DEFF02238DF8043001A968
:103600000248FCF736FE23B05DF804FB5CED0720B2
:10361000F0B5A3B03AB1174615890DB1002628E0E0
:10362000104608F03FFDFFF7C5FF02238DF8043078
:1036300001A91448FCF71DFE6FF00C001FE02C469A
:10364000802D28BF8024E4B203238DF804308DF848
:103650008540A4B2334622460DF10501384608F0F4
:1036600025FF01A90748FCF704FE2644B6B22D1B2E
:10367000ADB2002DE3D1384608F014FD002023B090
:10368000F0BD00BF5CED072030B5A3B005460C4689
:1036900004E010F077F8012001F0C2FD0C4B18682F
:1036A00018B1B0F86430A342F3D30123224629466F
:1036B0000BF028FF08B923B030BDFFF77BFF0223D2
:1036C0008DF8043001A90348FCF7D3FDF3E700BFF0
:1036D000A42A07205CED072010B5002009F0FCFCAF
:1036E0000B4B18600B4BB3F8722092B20A4909F0E9
:1036F00031F908B1002010BD054C0121206809F006
:10370000E3F920600028F5D0044909F091FAF2E7C6
:1037100084E90720C4EC07207C28002081330010B6
:1037200038B5114942F21073104AA1F1210010F08E
:10373000BDF808B1002038BD0D4D0E4C294620467D
:103740000FF038FE29460C4B186808F05FFAE37C4E
:10375000613C2BB1084B1B6813B104F17402DA62AF
:103760000120064B1870E6E7E5EC07200400400056
:103770007C28002025ED072010DD07208BED072099
:1037800008B5064B1B7803B908BD0021044813F0A7
:10379000CDF8024B00221A70F6E700BF8BED072030
:1037A000242B072008B50378042B08D8DFE803F0A2
:1037B00003080D171D00012100200FF0C1FF08BDF7
:1037C000002108460FF0BCFFF9E7FFF7F3FEFFF713
:1037D000E5FEFFF7D5FF064B00221A70EFE790F8E1
:1037E00021100130FFF750FFE9E7FFF76DFEE6E734
:1037F00094ED072008B5314B1B78022B4ED0032BDC
:1038000054D0002B45D12E4B1B782BB12C4B0122D1
:103810001A700022134607E0FFF7B4FEF6E72949C5
:10382000895C0B449BB20132202AF8DD002206E0BD
:103830002449114491F821100B449BB201323F2AD4
:10384000F6DD002206E01F49114491F861100B4497
:103850009BB201320F2AF6DD1A4AB2F8722013FA2F
:1038600082F39BB2002206E01649114491F87410CD
:103870000B449BB20132202AF6DD03F60F739BB294
:10388000104AB2F8962092B29A4203D00B4B012212
:103890001A7008BD094B02221A70FAE7FFF740FFC1
:1038A0000028F6D0054B03221A70F2E7FFF714FF49
:1038B0000028EED0014B04221A70EAE794ED0720AD
:1038C0008DED0720C4EC072070B505460C46002698
:1038D0000CE098B900214FF0FF3005F06FF80020A0
:1038E00005F068FB002005F025FB78B174B10020DD
:1038F00005F0DEFB8442ECD22046EAE70246A91935
:10390000002005F0B3FB0644241AE3E770BD000075
:1039100010B5074C61682068FFF7D6FFBFF35F8FD3
:1039200000232372BFF35F8F0123637210BD00BFBA
:103930001CEC072000B5A3B0082322221F49204811
:10394000FCF78EFC082322221E491F48FCF788FC46
:1039500007F01CFA0FF0FAFF0FF0D6FE00238DF8E7
:10396000043001A91948FCF784FC0DE0184B1B78C2
:10397000EBB9082217491248FCF77FFCFFF73AFF22
:10398000154B1B78022B15D800214FF0FF3005F0A6
:1039900015F8FFF757FD082210490B48FCF76DFC9E
:1039A0000F4B1B7A002BE1D0FFF7B2FFDEE7FFF7EA
:1039B000D9FBDEE70FF0E6FEE6E700BFA537001013
:1039C000F0390720F5330010DC3907205CED0720C3
:1039D000ADED0720B839072094ED0720E4EB072070
:1039E0001CEC0720436801F00F0141EA031141601C
:1039F00083681A1D8260072A0BD910B4043B8360C8
:103A0000D9400268C3685C1CC460D1545DF8044BA3
:103A100070477047836873B110B44268C3F10803FC
:103A20009A400168C3685C1CC460CA540023836068
:103A30005DF8044B7047704700B501EB410310F887
:103A400003E010F811C04FEA0C4C4CEA0E6C10F871
:103A500001E04CEA0E2C90F800E04CEA0E0CC1EBB1
:103A6000C10E10F80EE010F813301B0443EA0E6389
:103A700001EB810E10F80EE043EA0E2310F821103E
:103A80000B438CEADC1000F0AA108CEA000181EAFA
:103A9000C01183EAD31000F0AA10434083EAC01398
:103AA00081EA91304CF6CC4C00EA0C00414081EAAE
:103AB000803183EA933000EA0C00434083EA80338C
:103AC000080F40EA0310484000F0F030414083EA1C
:103AD00010131170C1F307205070C1F307409070AC
:103AE000090ED1701371C3F307215171C3F307415C
:103AF00091711B0ED3715DF804FB0000F0B583B02B
:103B000007460D46164600240DE004EBC31C03F1E6
:103B100008026A4412F808EC094A02F80CE0013382
:103B2000AB42F2D30134B44207D26A46012107EB1B
:103B3000C400FFF781FF0023F2E703B0F0BD00BF30
:103B400080DD07202DE9F04182B080460D46174602
:103B500000240FE004EBC31C03F108026A4412F8CE
:103B6000081C1B4A02F80C1001338342F2D3082DC3
:103B70000FD80134BC4227D208EB04166A46022152
:103B80003046FFF759FF2846082D28BF082000239C
:103B9000EBE76A460221701CFFF74EFFA5F108060D
:103BA000082E00D9082600230BE003F1080204EBDD
:103BB000C21203F10801694411F8080C0449885441
:103BC00001339E42F1D8D4E702B0BDE8F08100BFD6
:103BD00080DD07202DE9F04182B080460D46174672
:103BE00000240FE004EBC31C03F108026A4412F83E
:103BF000081C2A4A02F80C1001338342F2D3082D24
:103C00000FD80134BC4245D208EB44166A46042161
:103C10003046FFF711FF2846082D28BF0820002353
:103C2000EBE76A460421701CFFF706FFA5F1080CBC
:103C3000BCF1080F01D94FF0080C00230BE003F191
:103C4000080204EBC21203F10801694411F8080CE0
:103C50001249885401339C45F1D8102DD1D96A46B8
:103C60000421B01CFFF7E8FEA5F11006082E00D9CC
:103C7000082600230BE003F1100204EBC21203F14B
:103C80000801694411F8080C0449885401339E4224
:103C9000F1D8B6E702B0BDE8F08100BF80DD0720B3
:103CA00030B505464FEAD10CB2EBD10F1DD901F06A
:103CB000070E0CEB4011154850F8211059404FEAFF
:103CC0008E00C14004D1CEF108000CF1010C0DE0D2
:103CD00091FAA1F1B1FA81F1880805E094FAA4F40F
:103CE000B4FA84F400EB940030BD00209445FBD27C
:103CF0000CEB4511054C54F8211081EA030499425C
:103D0000ECD108300CF1010CF0E700BF80DD07209A
:103D10002DE9F04F85B005460E4690461F460E9B96
:103D200000930024019402940394C0E04FF0FF3309
:103D300000E05346424621462846FFF7B1FF814640
:103D4000BAF1000F02D14FF0060B0AE04FF00B0B57
:103D500007E00BF104016846FFF744FE2034A9F1A7
:103D60002009B9F1010F2ED9B9F11F0FF1D8B9F11E
:103D70000F0F0ED8B9F1070F14D8B9F1030F1AD9E4
:103D80000BF101016846FFF72DFE0434A9F1040987
:103D9000E7E70BF103016846FFF724FE1034A9F1B1
:103DA0001009DEE70BF102016846FFF71BFE08343D
:103DB000A9F10809D5E759466846FFF713FE023412
:103DC000A9F10209CDE76FD100216846FFF70AFE8D
:103DD00051466846FFF706FE013465E00CF1010C20
:103DE000B44510D2680100EBDC00DFF810E15EF8AA
:103DF00020000CF0070C4FEA8C0C20FA0CF000F0BD
:103E00000F00834214D001328A4211D204EB020C1B
:103E10006B0103EBDC03394850F823300CF007004A
:103E20008000C34013F00F03D8D00F2BEBD1D5E7A0
:103E3000072A0BD8052A12D8032A14D8022A15D823
:103E4000012A17D901214FF0020A02E005214FF0A3
:103E5000080A6846FFF7C6FD4FF0000921E003217C
:103E60004FF0060AF5E704218A46F2E702214FF0F7
:103E7000030AEEE700214FF0010AEAE704EB090329
:103E80006A0102EBD3021D4951F8221003F0070327
:103E90009B00D94001F00F016846FFF7A3FD09F12F
:103EA0000109CA45EAD85444039BBB4221D2B4421B
:103EB00017D26B0103EBD403104A52F8233004F0FD
:103EC00007029200D34013F00F0A3FF432AFBAF169
:103ED0000F0F3FF42BAF311B082928BF0821012207
:103EE00092E76846FFF796FD0398B84202D3002098
:103EF00000E0002005B0BDE8F08F00BF80DD0720A6
:103F0000014B10221A60704700800640014B0022CE
:103F10001A607047008006402DE9F04FABB08B4629
:103F200092461946349B5C099A080492DB08039375
:103F300008290DD910290FD8039AFFF703FE0AF1BB
:103F40000305AD080026289629960295059549E0B7
:103F50001A46FFF7D3FDF2E7039AFFF73BFEEEE7C1
:103F600003EB45172C4A52F8272011431040013328
:103F7000A342F5D341B3B0F1FF3F01D1022724E0C2
:103F800006AB0093039B224604992846FFF7C0FE28
:103F9000074658B1024606A93598029D284413F0F9
:103FA00025FC2B463B44029303270EE0039A1A4953
:103FB00001EBC5113598029D284413F017FC2B46E0
:103FC000039A1344029300E0012708F1A8030DEBC4
:103FD000030818F8083C07FA09F7FFB23B4308F852
:103FE000083C013656450CD21BF806504FEA96089D
:103FF00006F003094FEA490900234FF0FF30194644
:10400000B6E7059D2A4628A9359813F0EFFB0298DC
:104010002BB0BDE8F08F00BF80DD072010B400F0AA
:10402000070C4FEA8C0CC00801FA0CF100F18C0C63
:10403000074C44F82C1003EB80032AB103F500531E
:1040400019605DF8044B704703F540531960F8E7B9
:10405000008002400C4B03EB800253F8203083F0C9
:10406000400303F0C00302F5805CCCF80030C000D0
:1040700000F1804000F52030416002F540524FF4DD
:1040800080731360704700BF0480034010B40C4C71
:1040900004EB800C79B108237AB10422134354F85D
:1040A0002020534003F00C030CF5805CCCF800306A
:1040B0005DF8044B70470023EEE70022EEE700BFF7
:1040C00004800340C00000F18040043000F520333C
:1040D0001B6883EA014303F4403300F52430036096
:1040E0007047000039B1084B03EB800303F5005320
:1040F00002221A607047044B03EB800303F5405320
:1041000002221A60704700BF0480034070B5054664
:104110000C46164652B94FF050431B688BB10A4B00
:10412000324621462846FFF779FF70BD152000F082
:10413000FBF90028EFD1054B054ABD21054803F0E6
:10414000E7F8054BECE700BF90820240807F01104A
:104150008CBF0110AC7F01104882024010B54FF0B7
:1041600050431C68094B53F82430034207D10343E2
:10417000064840F82430152000F016FA10BD044B14
:10418000044ADB21044803F0C3F800BF60DD0720C8
:10419000E47F011058BF0110AC7F011010B54FF043
:1041A00050431A680C4B53F8223003420ED0044699
:1041B000152000F013FB4FF050431968064A52F8DF
:1041C000213023EA040342F8213010BD034B044A96
:1041D000EF21044803F09CF860DD072010800110F7
:1041E00034BF0110AC7F011039B1084B03EB8003E1
:1041F00003F5005340221A607047044B03EB800321
:1042000003F5405340221A60704700BF048003400A
:1042100008B54FF0000242EC440042EC400005219A
:10422000FFF718FF08BD08B51F21FFF713FF08BDF2
:104230000FB400B583B0049C074803F09DF93CB16E
:1042400005A90191204603F0A7F9044803F094F969
:10425000012003F03DF800BF3C800110787E011082
:10426000EFF3108072B6064BD3E8CF1F012200296E
:10427000FAD1C3E8412F0029F6D1BFF35F8F704711
:10428000632400200023034AC2E88F3F80F3108894
:10429000704700BF6324002070B505460C461646E3
:1042A000FFF7DEFFE208A95C04F0070C012303FA24
:1042B0000CF3194205D1DBB20B43AB54FFF7E2FF1D
:1042C00070BD21463046FFF7B3FFF8B506460D46F0
:1042D00014461F46FFF7C4FF00E00134BC420ED86D
:1042E0004FEAD40C16F80C1004F0070301229A4090
:1042F0001142F2D1D2B20A4306F80C2001E04FF08D
:10430000FF34FFF7BFFF002C01DB2046F8BD002D76
:10431000FBD00698FFF78CFF38B505460C46FFF733
:104320009FFFE1086A5C04F007040123A3401A42DE
:1043300005D022EA03026A54FFF7A4FF38BD034BFD
:10434000034A3321034802F0E3FF00BF4C80011011
:10435000A4BF01106C800110054A1078431CDBB229
:104360001370172B02D9134610221A70704700BF22
:104370004A17002000B583B00146054B00931F2368
:1043800018220448FFF7A1FF03B05DF804FB00BF4B
:10439000A4800110982A07204FF0E022936843F090
:1043A0000053936070470000002305E0044A1A445C
:1043B0000021C2E88F1F01331F2BF7D9704700BFC0
:1043C00058240020064B9B68103043F82010BFF3A0
:1043D0005F8F00230349C1E88F3F82F31088704745
:1043E00000ED00E0612400200048704700E400E098
:1043F00008B5FFF7F9FF002304E04FF0803240F8E2
:10440000042B01330C2BF8D962B608BD08B503881C
:10441000DA0A1C2A06D15B050BD45B15023300EBCC
:10442000430008BD064B074A4FF48E71064802F060
:104430006FFF03F5FF1303F5FF531F33EDE700BFD5
:10444000C080011000C00110D880011008B5091A01
:1044500001F2FC7240F6FE739A4208D8081F11F070
:10446000010F04D1C0F34A0040F4604008BD034B83
:10447000034A4FF48771034802F04AFF108101108C
:10448000F4BF0110D880011008B5091A04394B088F
:10449000090B0AD1C1F30A0141F4704101806FEAAE
:1044A00043536FEA5353438008BD034B034A4FF411
:1044B0008B71034802F02CFF40810110D0BF011026
:1044C000D88001104209064B53F8223000F01F003B
:1044D0000122824003EA0200003818BF0120704721
:1044E00000E100E03AB1064B00F1600243F822100F
:1044F00043F8201070472030014B43F820107047DC
:1045000000E100E008B50A4600F01F0301219940D0
:104510004009FFF7E7FF08BD024B9B68103053F8D6
:104520002000704700ED00E008B5FFF7F5FF30B15F
:10453000044A904201D0012008BD0020FCE7002081
:10454000FAE700BF1101001070B505460C46EFF305
:10455000108672B60F4BD3E8CF1F01220029FAD183
:10456000C3E8412F0029F6D1BFF35F8FFFF7D4FFD7
:10457000094B984201D0A04205D132462146284637
:10458000FFF720FF70BD054B054AED21054802F0FD
:10459000BFFE00BF612400201101001050810110F6
:1045A00028C00110D88001102DE9F04F87B000918C
:1045B0001546EFF3108A72B67C4BD3E8CF1F012269
:1045C0000029FAD1C3E8412F0029F6D1BFF35F8F4C
:1045D000774B93F90040002C44DB804604EB440702
:1045E000744B03EB870797F90610714A1170724AF2
:1045F000926800F1100152F82190A9EB03022F2AD2
:104600003ED96E4B994534D14FF42143ADF80C306F
:104610004FEA440904EB4400664E06EB800068490B
:104620000230FFF713FFADF80E004BF60153ADF863
:104630001030FF238DF812308DF81350009B059336
:10464000A14406EB890306AA12E9070083E80700E4
:1046500047F00109524649464046FFF7B3FE07B00E
:10466000BDE8F08F574B584A4FF4BE71574802F0DF
:104670004FFE574B544A40F28311544802F048FE13
:1046800029F0010BABEB0303524AA2FB0312D20841
:1046900002EB4202B3EB820F0FD15B460026DA79C0
:1046A000AA4212D993F90620002A0DDB02EB42023E
:1046B0001E46404B03EB8203F1E7474B424A4FF45F
:1046C000CA71424802F024FE1E46A6B344F6010316
:1046D000ADF80C304FF48F43ADF80E3096F906B0BC
:1046E000BBF1000F1ADA4BF60150ADF810008DF84F
:1046F00012B08DF81350009B05933946301DFFF71B
:10470000A5FEB080B47104EB44042A4B03EB840390
:1047100006AA12E9070083E807009BE7301DFFF7B0
:1047200075FE014604EB4402224B03EB8203181D85
:10473000FFF78CFED9E74FF42143ADF80C3063004E
:10474000019304EB4406DFF86C9009EB86061C49E4
:10475000B01CFFF77BFEADF80E005946301DFFF789
:1047600075FEADF810004AF6AA235A464946521A79
:10477000524153431B0D8DF812308DF81350009A9F
:104780000592019B234409EB830906AB13E907005B
:1047900089E8070044F60103ABF800304FF48F437B
:1047A000ABF8023047F0010954E700BF6124002054
:1047B0009DED07204C17002000ED00E011010010D6
:1047C0007C1700208881011010C00110D8800110D2
:1047D000B0810110ABAAAAAAD88101102DE9F04737
:1047E00006460D46EFF3108872B6504BD3E8CF1F44
:1047F00001220029FAD1C3E8412F0029F6D1BFF3E5
:104800005F8F4B4B9B6800F1100A53F82A70494B9D
:104810009F4207D0AF4200F087803C46464BFB1AD0
:104820002F2B06D9424639463046FFF7CBFDBDE86F
:10483000F087FFF747FE814600213046FFF762FE12
:10484000BFF35F8FEFF30580C0B208B1824510D18E
:1048500024F001040021A268954212D094F9063098
:10486000002B0DDB03EB43032146334C04EB8304A5
:10487000F1E7324B324A40F20221324802F048FD61
:104880002146954249D194F90650002D2BDB05EBCA
:104890004502294B03EB82039A68A260DA79E27140
:1048A00093F90630A371002B10DA4BF60150A0806B
:1048B00005EB4502204B03EB8203234A11789971E3
:1048C000157049463046FFF71DFEABE705EB450383
:1048D000194800EB83000430FFF798FD0146201DC6
:1048E000FFF7B4FDE3E798B981B1FF238B714BF675
:1048F00001538B80144A1378A3714AF6AA230E49F8
:10490000641A644163431B0D1370DAE7094FF1E742
:104910000E49201DFFF7B8FDD3E70D4B084A4FF4B1
:104920001171084802F0F4FC024F7BE7612400207B
:1049300000ED00E0110100104C1700205C82011016
:10494000E0BF0110D88001109DED072086170020E0
:104950009082011038B504460D46FFF745FD4FEA39
:10496000940C50F82C3004F00304E400FF22A24021
:1049700023EA0203A5402B4340F82C3038BD000049
:1049800038B540F00104324BE31A2F2B31D8EFF346
:104990000581C9B2002933D0EFF3108E72B62D4BCA
:1049A000D3E8CF5F0122002DFAD1C3E8452F002DB7
:1049B000F6D1BFF35F8F4AF6AA230246244D521B5D
:1049C000524153431B0D4FFA83FC234B9B6853F812
:1049D0002130A3421BD00023032B32D803EB430129
:1049E0001B4A02EB810292F90620624520D0013376
:1049F000F2E71A4B1A4A40F27F211A4802F088FC6B
:104A0000194B174A40F28221164802F081FC124BE2
:104A10009B68164A43F82120154B1A78827183F857
:104A200000C000230B4AC2E88F3F8EF3108838BDC8
:104A3000074A02EB8101FF248C714BF601538B80F6
:104A4000EAE70C4B064A40F29321064802F060FC6C
:104A50004C1700206124002000ED00E09882011036
:104A6000B4BF0110D8800110C082011011010010E4
:104A70009DED0720CC82011070B504460E46154608
:104A8000FFF76AFC0146204600F006F8A680E580A4
:104A9000BFF35F8F70BD0000014B0B440360704794
:104AA0005824002010B50446FFF756FC0146204666
:104AB000FFF7F2FFFF232371BFF35F8F10BD10B527
:104AC0000446FFF749FC01462046FFF7E5FFFF23B8
:104AD000237100236371BFF35F8F10BD10B50D4CC0
:104AE00009E00D4B0D4A1A210D4802F011FC204639
:104AF000FFF7D8FF08340B4B9C4209D22368002BE8
:104B0000F5D0012BEDD12046FFF7D9FF0834F2E7AD
:104B100010BD00BFA41D0020D482011068C0011088
:104B2000F4820110B41D0020024B0B440360BFF35C
:104B30005F8F70475824002010B504460120FFF70E
:104B400019FC01462046FFF7EFFF10BD0246EFF3C8
:104B50000583DBB2103B990804D0034803F003033C
:104B6000136070470148F9E700800B4000000B40DC
:104B700010B4846AA2EB040C0B1D50F823301B1BED
:104B80009C4504D3046A01238B401C4202D10431AA
:104B900040F821205DF8044B704741EA004070471F
:104BA0000D4B1A68EFF3108172B6D2E8CFCF012017
:104BB000BCF1000FF9D1C2E84C0FBCF1000FF4D1E9
:104BC000BFF35F8F1A680023C2E88F3F81F310881C
:104BD00040BF00200021704788E907202DE9F04FF1
:104BE00085B003A8FFF7B2FF954B984214BF00238E
:104BF0000123039901EB8303924A52F8234023785F
:104C0000994206D1054601228A4000F541535A6077
:104C10002CE18D4B8D4A92218D4802F079FBD4F81E
:104C2000149006EB46074FEAC70A09EBC707D7F807
:104C300008B0D7F80C80284600F0B4FBB0EB0B00AE
:104C400061EB0803002BC0F21A81B8F1000F64DB9E
:104C50003B691A4600937F4B9A4230D0798889B2DB
:104C6000B4F90800FFF799FF7969009B9847009015
:104C700001910099019A51EA02034ED01346002A8D
:104C800029DABBEB010268EB0308BA60C7F80C80B5
:104C900039F90A70002FC0F2F280D4F814E007EB63
:104CA00047030EEBC3039968DB68511A68EB0303F3
:104CB000002BC0F2E480A4462CF8087F17E07A6944
:104CC000136900921046984738B3009A136800930E
:104CD00053680193CDE7284600F064FB009B1A1847
:104CE000019B43EB0108D0E79C463EF90B70002F77
:104CF0000EDBBCF9003003EB43034FEAC30B0EEBB2
:104D0000C3039868D968101A68EB01010029EBDA2F
:104D100029F80A70ACF80060B1E039F90A30238153
:104D20002369EFF3108272B6D3E8CF0F0121002878
:104D3000FAD1C3E8401F0028F6D1BFF35F8FB4F962
:104D4000023029F80A30668021690023C1E88F3FCC
:104D500082F3108893E02369EFF3108272B6D3E8F0
:104D6000CF0F01210028FAD1C3E8401F0028F6D157
:104D7000BFF35F8FB4F804800FFA88F84FF6FF7323
:104D8000A38021690023C1E88F3F82F310881AE0D5
:104D90001F4630F90A60002E0FDBB7F9003003EB35
:104DA00043034FEAC30A00EBC3039968DA68BCEB1C
:104DB00001016EEB0202002AEADAA7F8008030F95E
:104DC000098020F80960B8F1000F5DDB606908EB2D
:104DD00048034FEAC30900EBC303D3F808C0D3F874
:104DE0000CE004F10807B4F90860D4E70023A371CC
:104DF00004F1080CB4F9083010E04FF0FF384FF020
:104E0000FF39C0E90289B4F90800984205D0ACF82E
:104E10000020B4F90800C85323811346B3F1FF3FC3
:104E200035D0616903EB4302D70001EBC20031F9D1
:104E30003220468816F4004FDFD18446EDE700BFEC
:104E400000800B4040DD07207C83011094C00110DE
:104E5000A8830110DD4B0010284600F0A3FA3F1A8A
:104E600066EB0106012F76F1000628DA039A01238A
:104E70009340EB63B4F90860002EBFF6D0AEA38870
:104E800013F4004F3FF467AFA379002BAED1B4F910
:104E90000830002B13DB626903EB430302EBC3030F
:104EA0009F68DE68B6F1FF3F08BFB7F1FF3FD3D080
:104EB0003A46334603992846FFF75AFECCE740BFEF
:104EC00005B0BDE8F08F00BFF8B504460D461146A9
:104ED0000A4B984210D000262E44012707FA05F508
:104EE00025623046FFF730FB39463046FFF70AFBB4
:104EF00004F501542560F8BD0426EDE700800B4061
:104F0000F8B504460E4617461D46C160FFF724FA61
:104F1000164B034423612770ABB263814FF05042BC
:104F2000127862704FF6FF722281A280013B63808B
:104F30004FF0000C08E00CF1FF300CEB4C0E6369F5
:104F400023F83E000CF1010CAC45F4D3084B9E4213
:104F500014BF0023012307EB8303064A42F82340D2
:104F6000054A39463046FFF7AFFFF8BD5824002008
:104F700000800B4040DD0720DD4B001008B5054BDD
:104F80001B690BB1034808BD034B044A6521044863
:104F900002F0BEF994170020D88301107CC00110E4
:104FA000A8830110F8B504469E460069EFF310810E
:104FB00072B6D0E8CF6F0125002EFAD1C0E8465F67
:104FC000002EF6D1BFF35F8FB4F90250666905EB8E
:104FD0004500C70006EBC000002D03DB36F907C013
:104FE000A4F802C04FF0000C2369C3E88FCF81F30F
:104FF0001088654533DB069901610799416182603C
:10500000C0F80CE0418889B20131C1F30E0101B949
:10501000012141802846FFF7C0FD2369EFF310828C
:1050200072B6D3E8CFCF0121BCF1000FF9D1C3E8AC
:105030004C1FBCF1000FF4D1BFF35F8FA388F35373
:10504000A58021690023C1E88F3F82F31088E368BF
:10505000217801228A4003F501535A60F8BD4FF0D0
:10506000FF30FBE770B582B0064615461C469DF83A
:10507000203033B900F0C0F9854264EB010100290A
:105080000ADB079B0193069B00932A462346304682
:10509000FFF788FF02B070BD0020FBE7F0B585B0D8
:1050A00005460C4616461F46FFF768FF9DF8283058
:1050B0000293019700962A462346FFF7D3FF05B0D7
:1050C000F0BD03464089B0EB214F31DD10B50A1425
:1050D000586902EB420200EBC2001A69EFF3108C30
:1050E00072B6D2E8CF4F5FF0010E002CF9D1C2E8C2
:1050F00044EF002CF5D1BFF35F8F428892B289B2A2
:105100008A420FD0002019690022C1E88F2F8CF34A
:10511000108830B1DA681B780121994002F50153FB
:10512000596010BD42F40042428001209871EAE7C4
:105130000020704710B50446FFF720FF2146FFF717
:10514000C0FF10BD40787047F0B583B0EFF3058322
:10515000DBB2CBB904460D46861F41F1FF37B042A2
:1051600071EB070301D20026374600F045F9301AEB
:1051700067EB0103012873F1000308DA2046294692
:1051800000F082F903B0F0BD1848FFF751F8002392
:105190000093174A30463946FFF780FF002819DA96
:1051A000ECE7144B1A68EFF3108172B6D2E8CFCF58
:1051B0000120BCF1000FF9D1C2E84C0FBCF1000F87
:1051C000F4D1BFF35F8F1A680023C2E88F3F81F3E9
:1051D000108820BF084B5B6A9F42E2D8064A926A59
:1051E000B242CBD29F42C9D1DBE700BFFC830110A2
:1051F000A14B001088E9072000000B4038B5044699
:105200000D4600F0F9F8201845EB0101002902DBFA
:10521000FFF79AFF38BD4FF0FF306FF00041F7E71E
:1052200008B5C30E4101091A63F100039B0043EA6C
:1052300091738900091843F10003DB00C80043EAB9
:105240005171FFF7DBFF08BDF0B583B005460C4692
:10525000EFF30583DBB293B1384B5B6A8B4209D322
:10526000364A926A824208D28B4201D0012002E083
:10527000002000E0002003B0F0BD0120FBE7FFF7B5
:105280007DFEC7680678384600F08CF82A1A64EB71
:105290000101043657F826301B1A9A4271F10001B9
:1052A00012DB20BF254B5B6A9C4209D8234A926AD5
:1052B000AA4207D29C4201D00120DCE70020DAE7B5
:1052C0000020D8E70120D6E7002300931C4A284697
:1052D0002146FFF7E3FE002818DD184B5B6A9C426D
:1052E00005D8164A926AAA4202D29C4200D120BF37
:1052F000FFF720FF114B5B6A9C421BD80F4A926A52
:10530000AA4219D29C4213D00120B4E70B4B5B6A2E
:105310009C4209D8094A926AAA4207D29C4201D00B
:105320000120A8E70020A6E70020A4E70120A2E7CB
:105330000020A0E700209EE701209CE700000B4032
:10534000A14B00100048704700000B4010B50A4BFD
:105350001B6923B10A210948FFF79EFB10BDFFF727
:10536000F1FF0446032100F00BF81023032221462D
:105370000148FFF7C5FDEDE79417002088E90720F5
:1053800010B5054A054C064BA04214BF1846581CE0
:10539000FEF782FF10BD00BF4C84011000800B405F
:1053A0009C2A07200246436A906A1946536A99422A
:1053B000FAD17047416A00E0416A9942FCD300E0AB
:1053C000416A994202D1816A9142F9D3704770B51E
:1053D000064614461D46FFF7E5FF021941EB05039B
:1053E000824273EB010102D24FF0FF321346304686
:1053F000FFF7E0FF70BD000008B50248FFF7D2FFDD
:1054000008BD00BF00000B4008B502460B4602482D
:10541000FFF7DDFF08BD00BF00000B4008B5002905
:1054200005DB826A836A9B1A8B42FBD308BD084660
:105430000021FFF7E9FFF9E708B50E4B994206D8BE
:105440004FF47A7303FB01F1FFF7E8FF08BDCA0EC2
:105450004B015B1A62F10002920042EA93729B00D8
:105460005B1842F10002D100DA0041EA5373FFF702
:10547000AEFFEBE79BC4200008B501460148FFF7EB
:10548000DBFF08BD00000B4008B502460B46024892
:10549000FFF790FF08BD00BF00000B4008B5C289B0
:1054A0008A4204D34268808901FB002008BD034B77
:1054B000034A1921034801F02BFF00BF708401103B
:1054C000B8C001108C84011070B504460E460CE083
:1054D000B4F80EC09C4521D1002A37D021680023A2
:1054E000C1E88F3F85F3108820BF2368EFF3108554
:1054F00072B6D3E8CF0F01210028FAD1C3E8401FCC
:105500000028F6D1BFF35F8F21896389CB1ADFD5DD
:10551000B4F80EC00CF1010C6344D9E72046FFF744
:10552000BDFFA289314612F061F9238901339BB294
:10553000E289934200D90023238122680023C2E834
:105540008F3F85F3108840BF012070BD2168002384
:10555000C1E88F3F85F310881046F6E770B5044622
:105560000E460AE0002B21D1002A39D02168002301
:10557000C1E88F3F85F3108820BF2368EFF31085C3
:1055800072B6D3E8CF0F01210028FAD1C3E8401F3B
:105590000028F6D1BFF35F8F238961895B1AE1D5BB
:1055A000B4F80EC00CF1010C6344DBE73EB12046B9
:1055B000FFF774FF0146A289304612F017F963899C
:1055C00001339BB2E289934200D9002363812268B0
:1055D0000023C2E88F3F85F3108840BF012070BDD3
:1055E00021680023C1E88F3F85F310881046F6E755
:1055F00070B504460D4616461946FFF74DFA294682
:10560000701C00F027FD6060E681A58100232381E6
:10561000638170BD08B50122FFF756FF08BD08B5CC
:105620000122FFF79BFF08BD70B51646049D00EBF5
:10563000400C4FEA8C0C0CF1804C0CF5803CDCF8F3
:105640000420AA4201D2CCF80450A0F1040E5FFA63
:105650008EFEBEF1010F28D90CF540524FF40064C4
:1056600014601E4A52F8202042B11C4C6469B4FBFD
:10567000F2F4013404EB4404033CFDD2DCF80020D6
:1056800082EA461202F0E0020CF580542260BEF17C
:10569000010F16D90CF500524FF400611160CCF8DF
:1056A00004500E4A42F8203070BD0129D4D10CF5C7
:1056B000405203241460DCF8082012F0010FFAD0E5
:1056C000DCE7DCF800204A4002F003022260DCF84C
:1056D000084001228A401442F9D0DBE7EC2A072077
:1056E00010B582B04FF480340094FFF79DFF02B0F4
:1056F00010BD0000014B53F820007047EC2A072032
:10570000F0B583B004460D461646134F3B460122C2
:1057100011460520FFF7E4FF00962B4622460121A3
:105720000E4800F059F806FB05F5B4FBF5F40C4BF8
:10573000002202210420FFF7D3FF2346002201218B
:105740000520FFF7CDFF3B46022200210620FFF790
:10575000C7FF03B0F0BD00BF006CDC0200000540D5
:10576000001BB7002DE9F04104460E461746984647
:105770004FF4A0751AE0013B9BB103FB00FCB2FBA8
:10578000FCFEA645F7D10CFB1E210029F3D1104ADF
:1057900002FB05F535603860C8F800300120BDE82F
:1057A000F081013808B10346E6E7013D0F2D0CD921
:1057B00042F6E06205FB02F2A2F53723A3F5D873A7
:1057C00004498B42F1D80720ECE70020E7E700BF4F
:1057D000001BB70050F80C0070B5049C344DB5FBAD
:1057E000F1FC344D1544344EB54237D8B2FBFCF5CC
:1057F000A5F1100EBEF5987F36D803F1FF3EBEF13D
:10580000060F37D804F1FF3EBEF1060F32D8BCEBCD
:10581000121F35D8240344EA03440368002B35DB08
:10582000264B984242D00E2301229A40244B1A6004
:1058300003F580531A60234B9B6832EA0303FAD1C5
:105840000160856000F54052043221231360036833
:10585000002BFCDAC4600823136070BD1A4B1B4A8E
:1058600011211B4801F054FD1A4B184A1921184800
:1058700001F04EFD184B154A1C21154801F048FD5A
:10588000164B124A2321124801F042FD036803F02F
:105890003F038B42C4D18368C3F30B03AB42BFD138
:1058A000C36803F4EE23A342BAD1D6E70F23BBE7C4
:1058B000001BB70080E84BD380F8A9320080054078
:1058C0000020024000000240C0840110C4C001104A
:1058D000108501104885011064850110B085011004
:1058E000024B1A68024B5A60704700BF603E0720A7
:1058F00000800D4008B5164B4FF080421A60A3F5AA
:105900004123144A9A6051B103F540234FF0E062FD
:105910001A6048B9104B4FF000421A6008BD0C4B9A
:105920004FF0E0621A60F4E74FF47A7303FB00F083
:105930000A4B1860B0F1807F02D36FF07F421A608B
:10594000FFF7CEFF044B4FF080421A60E6E700BF3E
:1059500000B00D40F3FFFF0100A00D40603E0720A6
:1059600010B50C4B4FF080441C6070B140F0010347
:1059700009480A4CC4610A4C5C400462416283627B
:1059800000211046FFF7B6FF10BD034B0021D9617F
:10599000F6E700BF00B00D4000800D40D3C007B057
:1059A0002D3FF84F054A00EB400302EB830359609B
:1059B00000EB40008000012313507047008010402E
:1059C0002DE9F04105460E46174698460023DB8A2E
:1059D000002242E800F212F4800F0BD1102144F2B1
:1059E00052209847044643463A4631462846A04747
:1059F000BDE8F081042144F2522098470446F2E7C2
:105A000008B50023DB8A002242E800F212F4800F7E
:105A100002D11021984708BD04219847FBE708B53B
:105A20000A46034628B141F0200290FAA0F3B3FAE7
:105A300083F30A214FF48170FFF7C2FF08B5031EFC
:105A400004DB41F020003AB141F030010A460A215E
:105A50004FF48170FFF7B4FF0146F7E710B586B049
:105A600004460023DA8A002343E800F313F4800F8E
:105A70000DD1102145F247309047034610220521F1
:105A800001A89847052815D0002006B010BD0421B4
:105A900045F2473090470346F0E75A1C06A901EB50
:105AA000820151F8141C44F823101346032BF4D937
:105AB0000120EAE70023F9E7034BD3F82838002B4D
:105AC000FAD0BFF35F8F704700000E40002207E05E
:105AD000054B13449B00BFF35F8F00211960013217
